:020000040800F2
:10000000005000204D0700089D0700089D070008CC
:100010009D0700089D0700089D07000800000000DC
:100020000000000000000000000000009D07000824
:100030009D070008000000009D0700089D020008C1
:100040009D0700089D0700089D0700089D07000800
:100050009D0700089D0700089D0700089D070008F0
:100060009D0700089D0700089D0700089D070008E0
:100070009D0700089D0700089D0700089D070008D0
:100080009D0700089D0700089D0700089D070008C0
:100090009D0700089D0700089D0700089D070008B0
:1000A0009D0700089D0700089D0700089D070008A0
:1000B0009D0700089D0700089D0700089D07000890
:1000C0009D0700089D0700089D0700089D07000880
:1000D0009D0700089D0700089D0700089D07000870
:1000E0009D0700089D070008000000009D0700080C
:1000F0009D0700089D0700089D0700089D07000850
:100100009D0700089D0700089D0700089D0700083F
:100110009D0700089D0700089D0700089D0700082F
:100120009D0700089D0700089D0700089D0700081F
:1001300010B5054C237833B9044B13B10448AFF321
:1001400000800123237010BD040000200000000087
:10015000A007000808B5034B1BB103490348AFF3E0
:10016000008008BD0000000008000020A007000873
:1001700070B50F4B0F4DAB42A3EB050607D0002423
:10018000B61055F8043B01349847A642F9D800F060
:1001900007FB094D094B5E1BAB424FEAA60606D092
:1001A000002455F8043B01349847A642F9D870BDA5
:1001B00088080008880800088808000890080008D7
:1001C000704700BF704700BF024B13B1024800F0F8
:1001D00005B8704700000000E9010008002301464F
:1001E0001A46184600F014B838B5074D074C2C1BBA
:1001F000A41005D0013C55F8043D9847002CF9D1D6
:10020000BDE8384000F0D2BA940800089008000811
:100210002DE9F8431B4D0646286898460F4691463F
:10022000FFF7CEFF184B1C681CB3286865681F2DAC
:1002300022DC4EB96B1C0235636044F82570FFF771
:10024000C1FF0020BDE8F883012304EB8501C1F85C
:100250008890D4F88821AB401A43022EC4F8882134
:10026000C1F80881E6D1D4F88C211A43C4F88C2156
:10027000E0E7064C1C60D8E7FFF7A4FF4FF0FF3023
:10028000E0E700BF0000002024000020280000203C
:1002900080B400AF00BFBD4680BC704780B400AFE3
:1002A000044B1B680133034A136000BFBD4680BC8A
:1002B000704700BFB801002080B400AF024B1B683C
:1002C0001846BD4680BC7047B801002080B584B098
:1002D00000AF78603960FFF7EFFFF8607B681B685C
:1002E000FA68D31A3A689A4201D9002303E07B687E
:1002F000FA681A60012318461037BD4680BD000019
:1003000080B400AF064B41F63F721A60054B0022E5
:100310001A60054B07221A6000BFBD4680BC7047BB
:1003200014E000E018E000E010E000E080B400AF6E
:100330000E4B9B690D4A43F4017343F00103936133
:100340000A4BDB69094A43F40033D361074B5B680E
:1003500023F44043054A43F400435360034B9B6935
:10036000024BDB6900BFBD4680BC704700100240F5
:1003700080B400AF084B1B68074A23F00F031360DB
:10038000054B1B6823F47063034A43F42063136036
:1003900000BFBD4680BC70470008014080B400AF7C
:1003A0000A4B0022DA60094B00221A61074B002237
:1003B0005A61064B40F241329A60044B42F2080205
:1003C000DA6000BFBD4680BC704700BF00440040FB
:1003D00080B582B000AF0346FB71FB790A2B02D1D6
:1003E0000D20FFF7F5FF00BF064B1B6803F08003ED
:1003F000002BF9D0034AFB79536000BF0837BD4694
:1004000080BD00BF0044004080B582B000AF78607E
:1004100006E07B685A1C7A601B781846FFF7D8FF05
:100420007B681B78002BF4D100BF00BF0837BD46A6
:1004300080BD000080B586B000AF786000237B618E
:100440007B68002B1DD13020FFF7C2FF2BE07968BD
:10045000164BA3FB0123DA0813469B0013445B00F1
:10046000CA1AD2B27B69591C79613032D2B21833C0
:100470003B4403F8102C7B680C4AA2FB0323DB08E7
:100480007B607B68002BE2D10AE07B69013B7B61EA
:1004900007F108027B6913441B781846FFF798FFA1
:1004A0007B69002BF1D11837BD4680BDCDCCCCCCBB
:1004B00080B500AF134B00225A60124B00229A60A5
:1004C000104B1B690F4A43F0070313610D4B0022C9
:1004D000DA620C4B00225A630A4B9B68094A43F4C8
:1004E000F0139360074B9B68064A43F00103936047
:1004F000FFF7E2FE0346044A1360044B01221A7020
:1005000000BF80BD00240140C0010020BC010020CC
:1005100080B500AF244B1B78013B032B40D801A2D0
:1005200052F823F0350500085D0500088305000832
:100530009D050008FFF7C0FE02461C4B1B689A424F
:1005400001D100232DE01A4B9B68194A43F00803A0
:100550009360154B02221A70002322E0144B9B6813
:1005600003F00803002B01D000231AE0104B9B6816
:100570000F4A43F0040393600B4B03221A700023CD
:100580000FE00B4B9B6803F00403002B01D000230A
:1005900007E0054B04221A70012302E0012300E06A
:1005A0000023184680BD00BFBC010020C001002010
:1005B0000024014080B400AF0E4B00225A630D4B63
:1005C00000221A600B4B9B680A4A43F48003936035
:1005D00000BF084B1B6803F00203002BF9D0054B4A
:1005E000DB6C9BB2C3F30B039BB21846BD4680BCC9
:1005F000704700BF0024014080B582B000AF0023E7
:100600007B6000233B6009E0FFF7D4FF03461A46F6
:100610007B6813447B603B6801333B603B680F2B76
:10062000F2D97B6808331B099BB218460837BD46D0
:1006300080BD000080B586B000AF00233B60002382
:10064000FB75FFF75DFEFFF771FEFFF791FEFFF709
:10065000A5FEFFF72DFFFFF75BFF0346002B5FD0E2
:10066000FB7D002B10D13048FFF7CEFE2F48FFF75F
:10067000CBFE2F48FFF7C8FEFFF71EFE0346A3F58B
:10068000FA733B600123FB753B464FF4FA71184641
:10069000FFF71CFE0346002B44D0FFF7ADFF0346D7
:1006A0003B613B6940F6E44202FB03F303F2FF7255
:1006B000204BA3FB0213D21A52081344DB0AFB603F
:1006C0003B6941F2883202FB03F303F2FF72194BDC
:1006D000A3FB0213D21A52081344DB0ABB60BB68A7
:1006E000C3F59C5308337B601348FFF78DFE3869D0
:1006F000FFF7A0FE1148FFF787FEF868FFF79AFEA4
:100700000F48FFF781FEB868FFF794FE0D48FFF72A
:100710007BFE7868FFF78EFE0B48FFF775FE9AE7C1
:1007200000BF98E700BF96E7B8070008DC0700089D
:10073000200800080101100058080008600800089F
:100740006808000874080008800800080D488546FD
:10075000FFF79EFD0C480D490D4A002302E0D458D6
:10076000C4500433C4188C42F9D30A4A0A4C0023FB
:1007700001E013600432A242FBD3FFF7F9FCFFF75C
:1007800059FFFEE700500020000000200400002078
:100790009408000804000020C4010020FEE70000C7
:1007A000F8B500BFF8BC08BC9E467047F8B500BF5E
:0807B000F8BC08BC9E4670472E
:1007B8000A53544D33324631303320706F74656EAE
:1007C80074696F6D65746572206D6F6E69746F7290
:1007D8000A00000041444320696E7075743A205045
:1007E8004130202F20414443315F494E302E205064
:1007F8004338206973206E6F7420616E2041444332
:100808002070696E206F6E2053544D33324631305C
:100818003352422E0A000000576972696E673A2007
:10082800335633202D2D20706F7420656E642C2074
:10083800474E44202D2D20706F7420656E642C2047
:100848007769706572202D2D205041302E0A0A00DC
:100858004144433D000000002020563D00000000B8
:100868006D56202052676E643D0000006F686D2051
:1008780020523376333D00006F686D0A0000000097
:08088800C90100085501000838
:04089000310100082A
:040894002000002020
:040000050800074D9B
:00000001FF
