:020000040800F2
:100000000050002015070008650700086507000874
:100010006507000865070008650700080000000084
:10002000000000000000000000000000650700085C
:100030006507000800000000650700086507000864
:1000400065070008650700086507000865070008E0
:1000500065070008650700086507000865070008D0
:1000600065070008650700086507000865070008C0
:1000700065070008650700086507000865070008B0
:1000800065070008650700086507000865070008A0
:100090006507000865070008650700086507000890
:1000A0006507000865070008650700086507000880
:1000B0006507000865070008650700086507000870
:1000C0006507000865070008650700086507000860
:1000D0006507000865070008650700086507000850
:1000E00065070008650700080000000065070008B4
:1000F0006507000865070008650700086507000830
:10010000650700086507000865070008650700081F
:10011000650700086507000865070008650700080F
:1001200065070008650700086507000865070008FF
:1001300010B5054C237833B9044B13B10448AFF321
:1001400000800123237010BD040000200000000087
:100150006807000808B5034B1BB103490348AFF318
:10016000008008BD000000000800002068070008AB
:1001700070B50F4B0F4DAB42A3EB050607D0002423
:10018000B61055F8043B01349847A642F9D800F060
:10019000EBFA094D094B5E1BAB424FEAA60606D0AF
:1001A000002455F8043B01349847A642F9D870BDA5
:1001B00010080008100800081008000818080008B7
:1001C000704700BF704700BF024B13B1024800F0F8
:1001D00005B8704700000000E9010008002301464F
:1001E0001A46184600F014B838B5074D074C2C1BBA
:1001F000A41005D0013C55F8043D9847002CF9D1D6
:10020000BDE8384000F0B6BA1C080008180800081D
:100210002DE9F8431B4D0646286898460F4691463F
:10022000FFF7CEFF184B1C681CB3286865681F2DAC
:1002300022DC4EB96B1C0235636044F82570FFF771
:10024000C1FF0020BDE8F883012304EB8501C1F85C
:100250008890D4F88821AB401A43022EC4F8882134
:10026000C1F80881E6D1D4F88C211A43C4F88C2156
:10027000E0E7064C1C60D8E7FFF7A4FF4FF0FF3023
:10028000E0E700BF0000002024000020280000203C
:1002900080B400AF00BFBD4680BC704780B483B05F
:1002A00000AF786013E00F4B41F63F725A600D4B80
:1002B00000229A600B4B05221A6000BF094B1B6895
:1002C00003F48033002BF9D0064B00221A607B68C0
:1002D0005A1E7A60002BE6D100BF00BF0C37BD4626
:1002E00080BC704710E000E080B400AF0F4B9B690A
:1002F0000E4A43F0050393610C4BDB690B4A43F450
:100300000033D3610A4B1B6823F47063084A43F43B
:1003100020631360074B40F241329A60054B42F272
:100320000802DA6000BFBD4680BC70470010024082
:10033000000801400044004080B483B000AF034691
:10034000FB7100BF064B1B6803F08003002BF9D044
:10035000034AFB79536000BF0C37BD4680BC704731
:100360000044004080B582B000AF786007E07B6851
:100370001B781846FFF7E0FF7B6801337B607B68E2
:100380001B78002BF3D100BF00BF0837BD4680BDEE
:1003900080B586B000AF786000237B617B68002B5E
:1003A0001FD13020FFF7C8FF2DE07968174BA3FB62
:1003B0000123DA0813469B0013445B00CA1AD3B228
:1003C0003033D9B207F108027B6913440A461A7028
:1003D0007B680E4AA2FB0323DB087B607B69013349
:1003E0007B617B68002BE0D10AE07B69013B7B618C
:1003F00007F108027B6913441B781846FFF79CFF3E
:100400007B69002BF1D11837BD4680BDCDCCCCCC5B
:1004100080B582B000AF78607B680F4AA2FB0323EF
:10042000DB081846FFF7B4FF2E20FFF785FF796839
:10043000094BA3FB0123DA0813469B0013445B001E
:10044000CA1AD3B23033DBB21846FFF775FF00BFCC
:100450000837BD4680BD00BFCDCCCCCC80B500AF49
:10046000244B9B69234A43F401739361214B5B68DE
:1004700023F440431F4A43F4004353601E4B1B6860
:100480001D4A23F00F0313601C4B00225A601B4BC4
:100490004FF4F0129A60194B07221A61174B002291
:1004A000DA62164B00225A63144B9B68134A43F0DE
:1004B000010393600120FFF7F1FE104B9B680F4A88
:1004C00043F00803936000BF0C4B9B6803F00803E4
:1004D000002BF9D1094B9B68084A43F00403936051
:1004E00000BF064B9B6803F00403002BF9D100BF4B
:1004F00000BF80BD00100240000801400024014000
:1005000080B400AF0B4B9B680A4A43F480039360AE
:1005100000BF084B1B6803F00203002BF9D0054B0A
:10052000DB6C9BB2C3F30B039BB21846BD4680BC89
:10053000704700BF0024014080B483B000AF034681
:10054000FB80FB8840F6E44202FB03F303F2FF72F8
:10055000054BA3FB0213D21A52081344DB0A1846B8
:100560000C37BD4680BC70470101100080B483B0D9
:1005700000AF0346FB80FB8841F2883202FB03F3A5
:1005800003F2FF72054BA3FB0213D21A5208134465
:10059000DB0A18460C37BD4680BC704701011000CD
:1005A00080B483B000AF0346FB80FB884FF47A72BF
:1005B00002FB03F303F2FF72054BA3FB0213D21AF3
:1005C00052081344DB0A18460C37BD4680BC7047FE
:1005D0000101100080B483B000AF0346FB80FB88AC
:1005E00040F6B83202FB03F303F2FF72054BA3FBA4
:1005F0000213D21A52081344DB0A18460C37BD46C0
:1006000080BC704701011000B0B588B000AF7860C1
:10061000FFF776FF0346BB81BB891846FFF78CFFC7
:1006200003463B61BB891846FFF7A0FF03467B6189
:10063000BB891846FFF7B4FF0346BB61BB89184668
:10064000FFF7C8FF0346FB617B681D4607F10C04FA
:100650000FCC0FC523682B6078682037BD46B0BD2E
:1006600080B582B000AF78601748FFF77BFE7B68EB
:100670009B681846FFF78CFE1448FFF773FE7B68F3
:100680001B881846FFF784FE1148FFF76BFE7B6856
:100690005B681846FFF77CFE0E48FFF763FE7B6839
:1006A000DB681846FFF7B4FE0B48FFF75BFE7B687C
:1006B0001B691846FFF7ACFE0848FFF753FE00BF62
:1006C0000837BD4680BD00BF8007000890070008BE
:1006D000A0070008B0070008C0070008CC07000802
:1006E00080B586B000AFFFF7FFFDFFF7B7FE084803
:1006F000FFF738FE3B1D1846FFF786FF3B1D1846E7
:10070000FFF7AEFF4FF49670FFF7C8FD00BFF1E7AB
:10071000D40700080D488546FFF7BAFD0C480D497F
:100720000D4A002302E0D458C4500433C4188C424C
:10073000F9D30A4A0A4C002301E013600432A242B2
:10074000FBD3FFF715FDFFF7CBFFFEE700500020BE
:1007500000000020040000201C0800080400002005
:10076000B8010020FEE70000F8B500BFF8BC08BCE7
:100770009E467047F8B500BFF8BC08BC9E4670475F
:10078000526573697374616E63653A2000000000FE
:10079000206F686D207C204144433A200000000017
:1007A000207C20566F6C746167653A200000000061
:1007B000206D56207C205475726E3A200000000097
:1007C00025207C20416E676C653A2000C2B00D0A7E
:1007D00000000000413020706F74656E74696F6DA9
:1007E00065746572206D6F6E69746F7220726561D9
:1007F00064792C20746F74616C20356B206F686D88
:100800002C20616E676C6520333030C2B00D0A0059
:08081000C901000855010008B0
:0408180031010008A2
:04081C002000002098
:0400000508000715D3
:00000001FF
