:020000040800F2
:1000000000500020090400085904000859040008A1
:1000100059040008590400085904000800000000B1
:10002000000000000000000000000000590400086B
:100030005904000800000000590400085904000891
:10004000590400085904000859040008590400081C
:10005000590400085904000859040008590400080C
:1000600059040008590400085904000859040008FC
:1000700059040008590400085904000859040008EC
:1000800059040008590400085904000859040008DC
:1000900059040008590400085904000859040008CC
:1000A00059040008590400085904000859040008BC
:1000B00059040008590400085904000859040008AC
:1000C000590400085904000859040008590400089C
:1000D000590400085904000859040008590400088C
:1000E00059040008590400080000000059040008E1
:1000F000590400085904000859040008590400086C
:10010000590400085904000859040008590400085B
:10011000590400085904000859040008590400084B
:10012000590400085904000859040008590400083B
:1001300010B5054C237833B9044B13B10448AFF321
:1001400000800123237010BD040000200000000087
:100150005C04000808B5034B1BB103490348AFF327
:10016000008008BD00000000080000205C040008BA
:1001700070B50F4B0F4DAB42A3EB050607D0002423
:10018000B61055F8043B01349847A642F9D800F060
:1001900065F9094D094B5E1BAB424FEAA60606D036
:1001A000002455F8043B01349847A642F9D870BDA5
:1001B0007404000874040008740400087C04000837
:1001C000704700BF704700BF024B13B1024800F0F8
:1001D00005B8704700000000E9010008002301464F
:1001E0001A46184600F014B838B5074D074C2C1BBA
:1001F000A41005D0013C55F8043D9847002CF9D1D6
:10020000BDE8384000F030B9800400087C040008E4
:100210002DE9F8431B4D0646286898460F4691463F
:10022000FFF7CEFF184B1C681CB3286865681F2DAC
:1002300022DC4EB96B1C0235636044F82570FFF771
:10024000C1FF0020BDE8F883012304EB8501C1F85C
:100250008890D4F88821AB401A43022EC4F8882134
:10026000C1F80881E6D1D4F88C211A43C4F88C2156
:10027000E0E7064C1C60D8E7FFF7A4FF4FF0FF3023
:10028000E0E700BF0000002024000020280000203C
:1002900080B400AF00BFBD4680BC704780B500AFE2
:1002A00000F00EF800F03AF8642000F065F89620AF
:1002B00000F062F84FF4967000F05EF800BFF3E7CC
:1002C00080B500AF044B1B68034A43F01003136072
:1002D00000F004F800BF80BD1810024080B483B065
:1002E00000AF00237B600C4B1A680F217B6801FA7A
:1002F00003F3DB43084913400B60074B1A680221E4
:100300007B6801FA03F3044913430B6000BF0C3709
:10031000BD4680BC704700BF0410014080B400AFF0
:10032000064B41F63F721A60054B00221A60054BDE
:1003300005221A6000BFBD4680BC704714E000E093
:1003400018E000E010E000E080B400AF034B4FF095
:1003500080721A6000BFBD4680BC7047101001401B
:1003600080B400AF034B4FF480721A6000BFBD46EB
:1003700080BC70471010014080B584B000AF786039
:100380000023FB600023BB6015E0BB68002B02D09C
:10039000FFF7E6FF01E0FFF7D7FF786800F016F8F7
:1003A000FA687B681344FB60BB68002B0CBF012319
:1003B0000023DBB2BB60FB6842F20F729342E4D9C8
:1003C00000BF00BF1037BD4680BD000080B483B0C1
:1003D00000AF786009E00A4B00221A6000BF094BA9
:1003E0001B6803F48033002BF9D07B685A1E7A60B7
:1003F000002BF0D100BF00BF0C37BD4680BC70475A
:1004000018E000E010E000E00D488546FFF740FFEF
:100410000C480D490D4A002302E0D458C45004335F
:10042000C4188C42F9D30A4A0A4C002301E0136035
:100430000432A242FBD3FFF79BFEFFF72FFFFEE73C
:10044000005000200000002004000020800400086C
:1004500004000020B8010020FEE70000F8B500BF4E
:10046000F8BC08BC9E467047F8B500BFF8BC08BC95
:040470009E467047ED
:08047400C90100085501000850
:04047C003101000842
:040480002000002038
:0400000508000409E2
:00000001FF
