:020000040800F2
:10000000005000207D060008CD060008CD0600083F
:10001000CD060008CD060008CD060008000000004F
:10002000000000000000000000000000CD060008F5
:10003000CD06000800000000CD060008CD0600082F
:10004000CD060008CD060008CD060008CD06000844
:10005000CD060008CD060008CD060008CD06000834
:10006000CD060008CD060008CD060008CD06000824
:10007000CD060008CD060008CD060008CD06000814
:10008000CD060008CD060008CD060008CD06000804
:10009000CD060008CD060008CD060008CD060008F4
:1000A000CD060008CD060008CD060008CD060008E4
:1000B000CD060008CD060008CD060008CD060008D4
:1000C000CD060008CD060008CD060008CD060008C4
:1000D000CD060008CD060008CD060008CD060008B4
:1000E000CD060008CD06000800000000CD0600087F
:1000F000CD060008CD060008CD060008CD06000894
:10010000CD060008CD060008CD060008CD06000883
:10011000CD060008CD060008CD060008CD06000873
:10012000CD060008CD060008CD060008CD06000863
:1001300010B5054C237833B9044B13B10448AFF321
:1001400000800123237010BD040000200000000087
:10015000D006000808B5034B1BB103490348AFF3B1
:10016000008008BD0000000008000020D006000844
:1001700070B50F4B0F4DAB42A3EB050607D0002423
:10018000B61055F8043B01349847A642F9D800F060
:100190009FFA094D094B5E1BAB424FEAA60606D0FB
:1001A000002455F8043B01349847A642F9D870BDA5
:1001B0001407000814070008140700081C070008AB
:1001C000704700BF704700BF024B13B1024800F0F8
:1001D00005B8704700000000E9010008002301464F
:1001E0001A46184600F014B838B5074D074C2C1BBA
:1001F000A41005D0013C55F8043D9847002CF9D1D6
:10020000BDE8384000F06ABA200700081C07000863
:100210002DE9F8431B4D0646286898460F4691463F
:10022000FFF7CEFF184B1C681CB3286865681F2DAC
:1002300022DC4EB96B1C0235636044F82570FFF771
:10024000C1FF0020BDE8F883012304EB8501C1F85C
:100250008890D4F88821AB401A43022EC4F8882134
:10026000C1F80881E6D1D4F88C211A43C4F88C2156
:10027000E0E7064C1C60D8E7FFF7A4FF4FF0FF3023
:10028000E0E700BF0000002024000020280000203C
:1002900080B400AF064B41F63F725A60044B002217
:1002A0009A60034B05221A6000BFBD4680BC7047B0
:1002B00010E000E080B400AF064B1B6803F480330D
:1002C000002B14BF01230023DBB21846BD4680BCBF
:1002D000704700BF10E000E080B489B000AFF86064
:1002E0007A603B600B467B817B89072B01D8FB68DA
:1002F00001E0FB680433FB617B8903F007039B008B
:10030000BB613B689B007A6813437B61FB691A6899
:100310000F21BB6901FA03F3DB431A40FB691A6042
:10032000FB691A687969BB6901FA03F31A43FB692F
:100330001A6000BF2437BD4680BC704780B483B0CC
:1003400000AF78600B467B8013467B707B78002B78
:1003500005D07B8801229A407B681A6105E07B8882
:10036000103301229A407B681A6100BF0C37BD46EA
:1003700080BC704780B500AF214B9B69204A43F099
:100380000D0393610223032209211E48FFF7A4FFF6
:10039000012300220A211B48FFF79EFF00230322AE
:1003A00008211848FFF798FF022303220A21164864
:1003B000FFF792FF012300220B211348FFF78CFF68
:1003C0000023032201210F48FFF786FF02230322A7
:1003D00002210C48FFF780FF012300220321094876
:1003E000FFF77AFF074B082101221846FFF7A6FF07
:1003F000044B012100221846FFF7A0FF00BF80BD7B
:100400000010024000080140000C014080B487B099
:1004100000AF78603960184B7B617A6913469B00A6
:1004200013449A001A443B689B00B2FBF3F33B6110
:100430003B69124AA2FB03235B09FB60FB68642251
:1004400002FB03F33A69D31A1B0132330B4AA2FBB6
:1004500003235B09BB60FB681A01BB6803F00F0351
:100460001A437B689A607B6842F20C02DA6000BF34
:100470001C37BD4680BC704700127A001F85EB51C7
:1004800080B500AF0E4B9B690D4A43F480439361E6
:100490000B4BDB690A4A43F4C023D3614FF4165176
:1004A0000848FFF7B3FF4FF4E1310748FFF7AEFF0D
:1004B0004FF416510548FFF7A9FF00BF80BD00BFEC
:1004C0000010024000380140004400400048004055
:1004D00080B487B000AFF860B9601346FB8000239A
:1004E000FB8210E000BFFB681B6803F08003002B59
:1004F000F9D0FB8ABA6813441B781A46FB685A6025
:10050000FB8A0133FB82FA8AFB889A42EAD300BF56
:10051000FB681B6803F04003002BF9D000BF00BF4D
:100520001C37BD4680BC704780B483B000AF786094
:1005300039607B681B681B6803F02003002B07D021
:100540007B681B685B68DAB23B681A70012300E0C5
:10055000002318460C37BD4680BC704780B400AFFE
:1005600000BFBD4680BC704780B586B000AF034673
:10057000FB710023FB7300237B612248FB1D0122DA
:100580001946FFF7A5FF00233B610EE007F10F03BB
:1005900019461D48FFF7C8FF0346002B02D0012370
:1005A0007B6106E03B6901333B613B69174A93423B
:1005B000ECD9042216491748FFF78AFFFB1D0122D8
:1005C00019461448FFF784FF062213491148FFF724
:1005D0007FFF7B69002B07D007F10F03012219462B
:1005E0000C48FFF775FF04E009220C490948FFF7A2
:1005F0006FFF02220A490748FFF76AFF00BF18375A
:10060000BD4680BD00380140080700089F860100F4
:10061000E806000800440040F0060008F80600085C
:100620000407000880B584B000AFFFF7A3FEFFF712
:1006300027FFFFF72DFE0023FB604FF4FA737B606A
:100640004123FB72FFF736FE0346002B02D0FB6806
:100650000133FB60FA687B689A42F3D30023FB60A6
:10066000FB7A1846FFF780FFFB7A0133FB72FB7AB7
:100670005A2BE7D94123FB72E4E700000D48854679
:10068000FFF76CFF0C480D490D4A002302E0D458D7
:10069000C4500433C4188C42F9D30A4A0A4C0023CC
:1006A00001E013600432A242FBD3FFF761FDFFF7C4
:1006B000B9FFFEE7005000200000002004000020E9
:1006C0002007000804000020B8010020FEE7000019
:1006D000F8B500BFF8BC08BC9E467047F8B500BF2F
:0806E000F8BC08BC9E467047FF
:1006E80054583A2000000000202052583A200000B8
:1006F8002874696D656F7574290000000D0A000083
:0C07080000480040000801400100000013
:08071400C901000855010008AD
:04071C00310100089F
:040720002000002095
:040000050800067D6C
:00000001FF
