:020000040800F2
:100000000050002079040008C9040008C904000851
:10001000C9040008C9040008C90400080000000061
:10002000000000000000000000000000C9040008FB
:10003000C904000800000000C9040008C904000841
:10004000C9040008C9040008C9040008C90400085C
:10005000C9040008C9040008C9040008C90400084C
:10006000C9040008C9040008C9040008C90400083C
:10007000C9040008C9040008C9040008C90400082C
:10008000C9040008C9040008C9040008C90400081C
:10009000C9040008C9040008C9040008C90400080C
:1000A000C9040008C9040008C9040008C9040008FC
:1000B000C9040008C9040008C9040008C9040008EC
:1000C000C9040008C9040008C9040008C9040008DC
:1000D000C9040008C9040008C9040008C9040008CC
:1000E000C9040008C904000800000000C904000891
:1000F000C9040008C9040008C9040008C9040008AC
:10010000C9040008C9040008C9040008C90400089B
:10011000C9040008C9040008C9040008C90400088B
:10012000C9040008C9040008C9040008C90400087B
:1001300010B5054C237833B9044B13B10448AFF321
:1001400000800123237010BD040000200000000087
:10015000CC04000808B5034B1BB103490348AFF3B7
:10016000008008BD0000000008000020CC0400084A
:1001700070B50F4B0F4DAB42A3EB050607D0002423
:10018000B61055F8043B01349847A642F9D800F060
:100190009DF9094D094B5E1BAB424FEAA60606D0FE
:1001A000002455F8043B01349847A642F9D870BDA5
:1001B000E4040008E4040008E4040008EC04000877
:1001C000704700BF704700BF024B13B1024800F0F8
:1001D00005B8704700000000E9010008002301464F
:1001E0001A46184600F014B838B5074D074C2C1BBA
:1001F000A41005D0013C55F8043D9847002CF9D1D6
:10020000BDE8384000F068B9F0040008EC040008CC
:100210002DE9F8431B4D0646286898460F4691463F
:10022000FFF7CEFF184B1C681CB3286865681F2DAC
:1002300022DC4EB96B1C0235636044F82570FFF771
:10024000C1FF0020BDE8F883012304EB8501C1F85C
:100250008890D4F88821AB401A43022EC4F8882134
:10026000C1F80881E6D1D4F88C211A43C4F88C2156
:10027000E0E7064C1C60D8E7FFF7A4FF4FF0FF3023
:10028000E0E700BF0000002024000020280000203C
:1002900080B400AF00BFBD4680BC704780B400AFE3
:1002A000064B41F63F721A60054B00221A60054B5F
:1002B00005221A6000BFBD4680BC704714E000E014
:1002C00018E000E010E000E080B485B000AF786096
:1002D0000023FB6009E000BF094B1B6803F4803377
:1002E000002BF9D0FB680133FB60FA687B689A4207
:1002F000F1D300BF00BF1437BD4680BC704700BFBC
:1003000010E000E080B400AF124B1B68114A43F0CC
:1003100019031360104B1B680F4A43F00603136068
:100320000E4B1B680D4A43F4406313600C4B1B6873
:1003300023F070430A4A43F030431360094B1B68B3
:1003400023F07063074A43F03063136000BFBD467B
:1003500080BC7047181002401C100240040001408D
:1003600000100140000C014080B400AF1B4B4F2235
:100370001A601B4B63221A601A4B1B6823F4F0436C
:10038000184A43F4D0431360174B1B68164A43F0D6
:1003900010031360154B00221A60154B81221A605E
:1003A000144B4F221A60144B63221A60134B1B68C4
:1003B00023F07803114A43F068031360104B1B6865
:1003C0000F4A43F0010313600E4B00221A600E4BDC
:1003D00081221A6000BFBD4680BC704728040040DF
:1003E0002C04004018040040200400403804004061
:1003F00000040040280800402C0800401808004075
:1004000020080040340800400008004080B582B059
:1004100000AFFFF743FFFFF775FFFFF7A5FF0023CE
:100420007B600DE0124A7B681360124A7B68C3F15F
:10043000630313600F20FFF747FF7B6801337B6086
:100440007B68632BEED963233B600DE0084A3B6871
:100450001360084A3B68C3F1630313600F20FFF782
:1004600033FF3B68013B3B603B68002BEED1D6E796
:1004700038040040340800400D488546FFF708FF67
:100480000C480D490D4A002302E0D458C4500433EF
:10049000C4188C42F9D30A4A0A4C002301E01360C5
:1004A0000432A242FBD3FFF763FEFFF7AFFFFEE784
:1004B000005000200000002004000020F00400088C
:1004C00004000020B8010020FEE70000F8B500BFDE
:1004D000F8BC08BC9E467047F8B500BFF8BC08BC25
:0404E0009E4670477D
:0804E400C901000855010008E0
:0404EC0031010008D2
:0404F00020000020C8
:040000050800047972
:00000001FF
