:020000040800F2
:100000000050002065030008B5030008B503000890
:10001000B5030008B5030008B503000800000000A0
:10002000000000000000000000000000B503000810
:10003000B503000800000000B5030008B503000880
:10004000B5030008B5030008B5030008B5030008B0
:10005000B5030008B5030008B5030008B5030008A0
:10006000B5030008B5030008B5030008B503000890
:10007000B5030008B5030008B5030008B503000880
:10008000B5030008B5030008B5030008B503000870
:10009000B5030008B5030008B5030008B503000860
:1000A000B5030008B5030008B5030008B503000850
:1000B000B5030008B5030008B5030008B503000840
:1000C000B5030008B5030008B5030008B503000830
:1000D000B5030008B5030008B5030008B503000820
:1000E000B5030008B503000800000000B5030008D0
:1000F000B5030008B5030008B5030008B503000800
:10010000B5030008B5030008B5030008B5030008EF
:10011000B5030008B5030008B5030008B5030008DF
:10012000B5030008B5030008B5030008B5030008CF
:1001300010B5054C237833B9044B13B10448AFF321
:1001400000800123237010BD040000200000000087
:10015000B803000808B5034B1BB103490348AFF3CC
:10016000008008BD0000000008000020B80300085F
:1001700070B50F4B0F4DAB42A3EB050607D0002423
:10018000B61055F8043B01349847A642F9D800F060
:1001900013F9094D094B5E1BAB424FEAA60606D088
:1001A000002455F8043B01349847A642F9D870BDA5
:1001B000D0030008D0030008D0030008D8030008CB
:1001C000704700BF704700BF024B13B1024800F0F8
:1001D00005B8704700000000E9010008002301464F
:1001E0001A46184600F014B838B5074D074C2C1BBA
:1001F000A41005D0013C55F8043D9847002CF9D1D6
:10020000BDE8384000F0DEB8DC030008D803000881
:100210002DE9F8431B4D0646286898460F4691463F
:10022000FFF7CEFF184B1C681CB3286865681F2DAC
:1002300022DC4EB96B1C0235636044F82570FFF771
:10024000C1FF0020BDE8F883012304EB8501C1F85C
:100250008890D4F88821AB401A43022EC4F8882134
:10026000C1F80881E6D1D4F88C211A43C4F88C2156
:10027000E0E7064C1C60D8E7FFF7A4FF4FF0FF3023
:10028000E0E700BF0000002024000020280000203C
:1002900080B400AF00BFBD4680BC704780B483B05F
:1002A00000AF786009E00A4B00221A6000BF094BDA
:1002B0001B6803F48033002BF9D07B685A1E7A60E8
:1002C000002BF0D100BF00BF0C37BD4680BC70478B
:1002D00018E000E010E000E080B500AF1A4B1B68AA
:1002E000194A43F004031360184B1B68174A23F4A0
:1002F00070031360154B1B68144A43F4001313601A
:10030000134B1B68124A23F020031360114B124A4F
:100310001A60124B00221A60114B05221A600C4B16
:100320001B680B4A43F0200313600320FFF7B6FF5E
:10033000074B1B68064A23F0200313600120FFF7D8
:10034000ADFF00BFEBE700BF1810024000080140FE
:100350000C08014014E000E0FF117A0018E000E012
:1003600010E000E00D488546FFF792FF0C480D496C
:100370000D4A002302E0D458C4500433C4188C4200
:10038000F9D30A4A0A4C002301E013600432A24266
:10039000FBD3FFF7EDFEFFF79FFFFEE700500020C5
:1003A0000000002004000020DC03000804000020FE
:1003B000B8010020FEE70000F8B500BFF8BC08BC9B
:1003C0009E467047F8B500BFF8BC08BC9E46704713
:0803D000C901000855010008F5
:0403D80031010008E7
:0403DC0020000020DD
:040000050800036587
:00000001FF
