:020000040800F2
:100000000050002081150008D1150008D115000806
:10001000D1150008D1150008D11500080000000016
:10002000000000000000000000000000D1150008E2
:10003000D115000800000000D1150008D1150008F6
:10004000D1150008D1150008D1150008D1150008F8
:10005000D1150008D1150008D1150008D1150008E8
:10006000D1150008D1150008D1150008D1150008D8
:10007000D1150008D1150008D1150008D1150008C8
:10008000D1150008D1150008D1150008D1150008B8
:10009000D1150008D1150008D1150008D1150008A8
:1000A000D1150008D1150008D1150008D115000898
:1000B000DD140008D1150008D1150008D11500087D
:1000C000D1150008D1150008D1150008D115000878
:1000D000D1150008D1150008D1150008D115000868
:1000E000D1150008D115000800000000D115000846
:1000F000D1150008D1150008D1150008D115000848
:10010000D1150008D1150008D1150008D115000837
:10011000D1150008D1150008D1150008D115000827
:10012000D1150008D1150008D1150008D115000817
:1001300010B5054C237833B9044B13B10448AFF321
:1001400000800123237010BD080000200000000083
:10015000D415000808B5034B1BB103490348AFF39E
:10016000008008BD000000000C000020D41500082D
:1001700053B94AB9002908BF00281CBF4FF0FF310E
:100180004FF0FF3000F086B9ADF1080C6DE904CEF8
:1001900000F006F8DDF804E0DDE9022304B0704762
:1001A0002DE9F047089D0F4604468E46002B48D1A6
:1001B0008A42164661D9B2FA82F24AB1C2F12003EC
:1001C00001FA02FE20FA03F3964043EA0E0E944031
:1001D0004FEA164CBEFBFCF1B7B20CFB11EE01FB73
:1001E00007F0230C43EA0E43984209D9F31801F1B2
:1001F000FF3E80F0ED80984240F2EA8002393344BD
:100200001B1AB3FBFCF00CFB103300FB07F7A4B286
:1002100044EA0344A74209D9341900F1FF3380F0BE
:10022000D980A74240F2D6803444023840EA0140E7
:100230000021E41B1DB10023D440C5E90043BDE803
:10024000F0878B4206D90DB1C5E9000100210846AF
:10025000BDE8F087B3FA83F1002947D1BB4202D34E
:10026000824200F20481841A67EB03020120964661
:10027000002DE4D0C5E9004EE1E7002A00F09080AF
:10028000B2FA82F2002A40F0A780881B0121370CC5
:100290001FFA86FEB0FBF7FC07FB1C00230C43EAA9
:1002A00000430EFB0CF0984207D9F3180CF1FF380D
:1002B00002D2984200F2E080C4461B1AB3FBF7F06A
:1002C00007FB10330EFB00FEA4B244EA0344A6452C
:1002D00007D9341900F1FF3302D2A64500F2C980D4
:1002E0001846A4EB0E0440EA0C40A3E7C1F1200637
:1002F0008B4022FA06FC4CEA030C27FA06FA4FEA76
:100300001C49BAFBF9F88F4020FA06F309FB18AA3A
:100310001FFA8CFE3B4300FA01F708FB0EF01C0CA1
:1003200044EA0A44A04202FA01F20BD91CEB04048D
:1003300008F1FF3A80F09980A04240F29680A8F13F
:1003400002086444241A98B2B4FBF9F309FB13447D
:1003500003FB0EFE40EA0444A64508D91CEB040446
:1003600003F1FF307FD2A6457DD9023B644443EAC6
:100370000840A4EB0E04A0FB028E74454346F146F0
:1003800061D35ED055B1FA1A64EB090404FA06F69B
:1003900022FA01F31E43CC40C5E9006400214EE778
:1003A00043084FEA510C43EAC1710A0C42EA0C427D
:1003B0008BB2C407B2FBF6F143EA0243BCFBF6FC86
:1003C000B646304637461F22181A41EA0C4161E70B
:1003D000714615E7184629E7C2F1200321FA03F018
:1003E000964024FA03F397403B43370CB0FBF7F8F1
:1003F00007FB18001FFA86FE190C41EA004108FBB2
:100400000EF0884204FA02F43AD9711808F1FF3C60
:1004100001D288421ED8091AB1FBF7F808FB0EF08A
:1004200007FB18119BB243EA014383422FD2F31812
:1004300008F1FF31C8D28342C6D2A8F10201334489
:10044000C2E747459ED2B8EB02036EEB0C0E0138B3
:10045000F14697E7301A0144A8F1020CB1FBF7F816
:1004600008FB0EF0DCE7034681E7D0466AE7084662
:10047000FEE63444023834E7ACF1020C33441CE7A6
:10048000091AC446B1FBF7F808FB0EF0C8E741466D
:100490009AE700BF704700BF70B50F4B0F4DAB42DE
:1004A000A3EB050607D00024B61055F8043B013431
:1004B0009847A642F9D801F08DF8094D094B5E1B0B
:1004C000AB424FEAA60606D0002455F8043B01349F
:1004D0009847A642F9D870BD3C1600083C160008A3
:1004E0003C16000844160008704700BF704700BF64
:1004F000024B13B1024800F005B87047000000003D
:1005000011050008002301461A46184600F014B8E9
:1005100038B5074D074C2C1BA41005D0013C55F8ED
:10052000043D9847002CF9D1BDE8384001F058B897
:1005300048160008441600082DE9F8431B4D0646EE
:10054000286898460F469146FFF7CEFF184B1C6867
:100550001CB3286865681F2D22DC4EB96B1C023560
:10056000636044F82570FFF7C1FF0020BDE8F88301
:10057000012304EB8501C1F88890D4F88821AB40B1
:100580001A43022EC4F88821C1F80881E6D1D4F8B4
:100590008C211A43C4F88C21E0E7064C1C60D8E794
:1005A000FFF7A4FF4FF0FF30E0E700BF000000209E
:1005B000280000202C00002080B400AF00BFBD4602
:1005C00080BC704780B483B000AF786000BF7B68A8
:1005D0005A1E7A60002BFAD100BF00BF0C37BD460F
:1005E00080BC704780B582B000AF786003E04FF404
:1005F000FA50FFF7E7FF7B685A1E7A60002BF6D1AE
:1006000000BF00BF0837BD4680BD80B487B000AFD3
:10061000F860B9607A60BB689B007B61FB681A6810
:100620000F217B6901FA03F3DB431A40FB681A6070
:10063000FB681A6879687B6901FA03F31A43FB685F
:100640001A6000BF1C37BD4680BC704780B400AF45
:10065000144B1B68134A43F0010313604FF08043AF
:1006600000221A60104B07221A60104B40F2E7324A
:100670001A600F4B00221A600E4B01221A600E4BBB
:1006800000221A600D4B01221A600D4B4FF0805270
:100690001A604FF0804301221A6000BFBD4680BC43
:1006A000704700BF1C100240280000402C00004092
:1006B0002400004014000040100000400C000040E6
:1006C00000E100E080B485B000AF7860084B1B68A3
:1006D000FB6000BF064B1A68FB68D31A7A689A421F
:1006E000F8D800BF00BF1437BD4680BC704700BFBC
:1006F000BC01002080B500AF1B4B1B681A4A43F0B9
:100700001D031360002200211848FFF77EFF00221E
:1007100001211648FFF779FF0A2202211348FFF74B
:1007200074FF062205211148FFF76FFF0622012101
:100730000F48FFF76AFF082206210E48FFF765FF02
:10074000082200210C48FFF760FF0C4B20221A60A2
:100750000B4B4FF400721A600A4B1B68094A43F4B2
:10076000A073136000BF80BD181002400008014054
:10077000040C014000100140041001401008014029
:10078000100C01400C10014080B485B000AF7860BF
:100790000B4B1A6801217B6801FA03F31340002B0D
:1007A00014BF01230023DBB2FB73FB7B002B0CBFC8
:1007B00001230023DBB218461437BD4680BC7047C6
:1007C0000810014080B400AF084B1B68074A43F48F
:1007D00000331360064B40F241321A60054B42F27F
:1007E00008021A6000BFBD4680BC70471C10024062
:1007F000084400400C44004080B483B000AF03467E
:10080000FB7100BF064B1B6803F08003002BF9D07F
:10081000044AFB79136000BF0C37BD4680BC7047AB
:10082000004400400444004080B582B000AF7860CE
:1008300006E07B685A1C7A601B781846FFF7DCFFDD
:100840007B681B78002BF4D100BF00BF0837BD4682
:1008500080BD000080B586B000AF786000237B616A
:100860007B68002B1DD13020FFF7C6FF2BE0796895
:10087000164BA3FB0123DA0813469B0013445B00CD
:10088000CA1AD2B27B69591C79613032D2B218339C
:100890003B4403F8102C7B680C4AA2FB0323DB08C3
:1008A0007B607B68002BE2D10AE07B69013B7B61C6
:1008B00007F108027B6913441B781846FFF79CFF79
:1008C0007B69002BF1D11837BD4680BDCDCCCCCC97
:1008D00080B485B000AF78607A6813465B0013443B
:1008E000FB600C4B1A680721FB6801FA03F3DB433A
:1008F000084913400B60074B1A680721FB6801FA8F
:1009000003F3044913430B6000BF1437BD4680BC9A
:10091000704700BF1024014080B500AF224B1B6818
:10092000214A43F400731360204B1B681F4A23F4D1
:10093000404313601E4B00221A600020FFF7C8FFDF
:100940000120FFF7C5FF1B4B00221A601A4B002243
:100950001A60174B4FF4F0121A60154B1B68144ABB
:1009600043F0010313600220FFF7ACFE104B1B683D
:100970000F4A43F00803136000BF0D4B1B6803F0E0
:100980000803002BF9D10A4B1B68094A43F0040302
:10099000136000BF064B1B6803F00403002BF9D162
:1009A00000BF00BF80BD00BF18100240041002400D
:1009B000082401402C2401403424014080B485B037
:1009C00000AF7860134BFB60134A7B681360134BD6
:1009D00000221A60124B1B68114A43F48003136013
:1009E00002E0FB68013BFB600C4B1B6803F0020359
:1009F000002B02D1FB68002BF3D1FB68002B01D147
:100A0000002302E0074B1B689BB218461437BD4613
:100A100080BC7047A08601003424014000240140BE
:100A2000082401404C24014080B483B000AF7860BA
:100A30007B6841F2883203FB02F2064BA3FB0213F0
:100A4000D21A52081344DB0A18460C37BD4680BC44
:100A5000704700BF010110002DE9F00F88B000AF12
:100A6000C7E902014FF000024FF08043C7E90623B7
:100A70004FF000024FF00003C7E904230BE0D7E971
:100A800006014FF000024FF00003820842EA817233
:100A90008B08C7E90623D7E90623D7E9020190426C
:100AA00071EB0303EBD349E0D7E90401D7E906234F
:100AB000841841EB0305D7E90223A242AB4125D3B9
:100AC000D7E90401D7E9062310EB020841EB03093B
:100AD000D7E90223B2EB080A63EB090BC7E902ABC3
:100AE000D7E904014FF000024FF00003420842EA48
:100AF000C1724B08D7E9060186183E6041EB03033B
:100B00007B60D7E90023C7E904230BE0D7E90401A0
:100B10004FF000024FF00003420842EAC1724B0856
:100B2000C7E90423D7E906014FF000024FF00003A4
:100B3000820842EA81728B08C7E90623D7E90623B7
:100B40001343B1D13B6918462037BD46BDE8F00FCD
:100B500070472DE9B04FA0B000AF78657B6D002BDA
:100B600002D101237B6507E07A6D40F6FE739A425D
:100B700002D940F6FE737B657B6DC3F57F630F334F
:100B800000221C461546C7E91E457B6D0022BB634B
:100B9000FA63D7E90E34C7E91C34D7E91E4522466B
:100BA0002B464FF000004FF00001990041EA92718E
:100BB000900002460B4612EB040843EB05094FF088
:100BC00000024FF000034FEAC90343EA58734FEAAB
:100BD000C80290469946B8EB040A69EB050B4FF042
:100BE00000024FF000034FEA0B1343EA1A734FEA77
:100BF0000A1292469B461AEB04033B634BEB050338
:100C00007B634FF000024FF00003D7E90C45294603
:100C10000B0520462946044643EA143301460A05DB
:100C200090469946D7E91C4522462B464FF00000D6
:100C30004FF00001990041EA9271900002460B4684
:100C40001119B9626B41FB624FF000024FF00003D3
:100C5000D7E90AAB5946CB00D44643EA5C73514608
:100C6000CA001146091B396263EB05037B624FF032
:100C700000024FF00003D7E908AB59460B01D446F8
:100C800043EA1C7351460A0111461A460B461B19CA
:100C9000BB61134645EB0303FB614FF000024FF0CD
:100CA0000003D7E9064529460B012046294604469C
:100CB00043EA147301460A0140464946FFF758FAD1
:100CC00002460B46C7E91A23D7E91A01FFF7C4FE0B
:100CD000034600223B617A61D7E90434C7E918343E
:100CE000FB6E3A6E03FB02F27B6EB96E01FB03F3FF
:100CF0001344B96E3A6EA1FB0221F964BA64FA6C2E
:100D00001344FB64D7E9124522462B464FF00000FE
:100D10004FF00001990041EA9271900002460B46A3
:100D200021465118B960294643EB0101F960D7E922
:100D300002120B46DB183B60134642EB03037B6059
:100D4000D7E900341A46234612F50001396443F10D
:100D500000037B644FF000024FF00003D7E9104519
:100D600021460A0E204629460C4642EA04220B0E72
:100D7000C7E91623D7E91623012B02D34FF0FF331F
:100D800000E0BB6D18468037BD46BDE8B08F00005F
:100D900080B582B000AF0346FB800C48FFF744FDEE
:100DA000FB881846FFF756FD0948FFF73DFDFB8815
:100DB0001846FFF739FE03461846FFF74BFD054876
:100DC000FFF732FD00BF0837BD4680BDEC150008B7
:100DD000F4150008F815000880B582B000AF03468E
:100DE000FB800C48FFF720FDFB881846FFF732FD1B
:100DF0000948FFF719FDFB881846FFF7AAFE0346CE
:100E00001846FFF727FD0548FFF70EFD00BF08371E
:100E1000BD4680BD001600080C160008101600081C
:100E200080B483B000AF78600B46FB70FB78002B7A
:100E30000AD07B681B78312B10D87B681B78013374
:100E4000DAB27B681A7009E07B681B78002B05D04A
:100E50007B681B78013BDAB27B681A707B685B7831
:100E6000002B07D17B681B78132B03D97B680122E9
:100E70005A700AE07B685B78002B06D07B681B7891
:100E8000002B02D17B6800225A707B685B78184681
:100E90000C37BD4680BC704780B582B000AF0023E0
:100EA000FB710620FFF770FC034619462648FFF742
:100EB000B7FF0346002B03D0FB7943F00103FB711E
:100EC0000820FFF761FC034619462048FFF7A8FFFA
:100ED0000346002B03D0FB7943F00203FB711C4B4C
:100EE0001B78DBB2FA799A4211D0194AFB79137058
:100EF000FB79002B07D0174B01221A70164B4FF4C9
:100F0000FA721A801DE0144B00221A8019E0FB7956
:100F1000002B15D0104B1B88002B05D00E4B1B88C7
:100F2000013B9AB20C4B1A800B4B1B88002B08D14B
:100F3000084B01221A70084B4FF4FA721A8000E035
:100F400000BF0837BD4680BDC4030020C803002091
:100F5000C0010020C1010020CA03002080B584B078
:100F600000AF0346FB710023FB810023BB81FB79AB
:100F700003F00103002B08D00020FFF71FFD0346FC
:100F8000FB81FB891846FFF703FFFB7903F003039E
:100F9000032B02D10B48FFF747FCFB7903F0020358
:100FA000002B08D00120FFF709FD0346BB81BB8958
:100FB0001846FFF711FF0448FFF736FC00BF103753
:100FC000BD4680BD181600082016000880B500AF89
:100FD0002820FFF7F7FA00BF80BD000080B500AF02
:100FE000034B20221A60FFF7F1FF00BF80BD00BF56
:100FF0001008014080B500AF034B20221A60FFF7B4
:10100000E5FF00BF80BD00BF1408014080B500AF00
:10101000034B4FF400721A60FFF7D8FF00BF80BD8A
:10102000100C014080B500AF034B4FF400721A6002
:10103000FFF7CCFF00BF80BD140C014080B500AFAE
:10104000FFF7E4FFFFF7CAFFFFF7ECFFFFF7D2FF60
:1010500000BF80BD80B500AFFFF7E4FFFFF7BEFF24
:10106000FFF7D4FF00BF80BD80B584B000AF03465A
:10107000FB710023FB7312E097F90730002B02DAB3
:10108000FFF7C4FF01E0FFF7CDFFFFF7A7FFFFF772
:10109000B1FFFB795B00FB71FB7B0133FB73FB7BD7
:1010A000072BE9D9FFF7B2FFFFF798FF084B1B6842
:1010B00003F40073002B0CBF01230023DBB2BB73CE
:1010C000FFF798FFBB7B18461037BD4680BD00BFB9
:1010D000080C014080B582B000AF0346FB71FFF7FA
:1010E000ADFF7820FFF7C0FF0020FFF7BDFFFB79C1
:1010F0001846FFF7B9FFFFF7ADFF00BF0837BD4641
:1011000080BD000080B500AF2C4B20221A602C4B14
:101110004FF400721A606420FFF764FAAE20FFF704
:10112000D9FFD520FFF7D6FF8020FFF7D3FFA820F7
:10113000FFF7D0FF1F20FFF7CDFFD320FFF7CAFF37
:101140000020FFF7C7FF4020FFF7C4FF8D20FFF707
:10115000C1FF1420FFF7BEFF2020FFF7BBFF0020D8
:10116000FFF7B8FFA120FFF7B5FFC820FFF7B2FFD8
:10117000DA20FFF7AFFF0220FFF7ACFF8120FFF777
:10118000A9FF8F20FFF7A6FFD920FFF7A3FFF120CB
:10119000FFF7A0FFDB20FFF79DFF4020FFF79AFF3E
:1011A000A420FFF797FFA620FFF794FF2E20FFF75C
:1011B00091FFAF20FFF78EFF00BF80BD10080140F8
:1011C000100C014080B483B000AF00237B6007E0C7
:1011D000084A7B68134400221A707B6801337B60E5
:1011E0007B68B3F5007FF3D300BF00BF0C37BD466B
:1011F00080BC7047C401002080B485B000AF0346B6
:10120000FB710B46BB7113467B7197F90730002BBE
:101210002BDBBB791F2B28D8FB799AB2BB79DB0873
:10122000DBB2DB019BB21344FB81BB7903F0070304
:10123000012202FA03F37B737B79002B09D0FB892F
:101240000C4AD15CFB897A7B0A43D1B2094AD1545A
:101250000CE0FB89074AD15C7B7BDB43DAB2FB897C
:101260000A40D1B2034AD15400E000BF1437BD4652
:1012700080BC7047C401002090B585B000AF044623
:10128000084611461A462346FB710346BB710B46BE
:101290007B7113463B710023FB7318E00023BB7383
:1012A0000EE0FA79BB7B1344D8B2BA79FB7B1344C6
:1012B000DBB201221946FFF79FFFBB7B0133BB73F3
:1012C000BA7B7B799A42ECD3FB7B0133FB73FA7BCD
:1012D0003B799A42E2D300BF00BF1437BD4690BDB0
:1012E00080B584B000AF0346FB710B46BB7113465B
:1012F0007B717B790633FB737B790C33BB73FB7992
:10130000452B18D17979B8790E230222FFF7B4FF63
:101310007979B87902230E22FFF7AEFFF97BB8790D
:1013200002230E22FFF7A8FFB97BB87902230E2211
:10133000FFF7A2FF24E0FB79532B21D17979B8790B
:1013400002230E22FFF798FFF97BB87902230E22C1
:10135000FFF792FFB97BB87902230E22FFF78CFFCB
:101360007979B87907230222FFF786FFBB790C331E
:10137000D8B27B790733D9B207230222FFF77CFF6B
:1013800000BF1037BD4680BD80B584B000AF786027
:101390000023FB7315E0FB7B1A4652001A449200AF
:1013A00013445B00DBB21233BB73FB7B7A681344DC
:1013B0001B78B97B02221846FFF792FFFB7B0133B3
:1013C000FB73FB7B032BE6D900BF00BF1037BD4684
:1013D00080BD000080B582B000AF2120FFF77AFE0B
:1013E0000020FFF777FE7F20FFF774FE2220FFF733
:1013F00071FE0020FFF76EFE0320FFF76BFEFFF784
:101400001DFE7820FFF730FE4020FFF72DFE002361
:101410007B6009E0094A7B6813441B781846FFF794
:1014200023FE7B6801337B607B68B3F5007FF1D3DB
:10143000FFF710FE00BF0837BD4680BDC401002085
:1014400080B582B000AF0346FB71FFF7BBFEFB79AE
:10145000002B01D0054B00E0054B1846FFF794FF29
:10146000FFF7B8FF00BF0837BD4680BD241600084F
:101470002C16000880B584B000AF0020FFF79EFA5C
:101480000346FB810120FFF799FA0346BB81FB89E4
:101490001846FFF7C9FAB860BB891846FFF759FB31
:1014A00078607B68642B03D9BB68B3F5C87F01D82B
:1014B000012300E00023FB70074B1B78FA789A4267
:1014C00006D0054AFB781370FB781846FFF7B8FF83
:1014D00000BF1037BD4680BD0400002080B500AFBE
:1014E0000A4B1B6803F00103002B0DD0074B1B6850
:1014F000064A23F001031360054B1B680133044ABD
:101500001360FFF7C9FC00E000BF80BD1000004081
:10151000BC01002080B582B000AFFFF7EBF8FFF709
:1015200051F9FFF7EFFDFFF791F8FFF7F5F9FFF736
:10153000A1FF104B1B687B600F4B1B78DBB2002BAD
:101540000CD00D4B00221A700C4B1B78FB70FB78F3
:10155000002B03D0FB781846FFF700FD054B1A68F7
:101560007B68D31AC72BE7D9024B1B687B60FFF758
:1015700081FFE1E7BC010020C1010020C001002083
:101580000D488546FFF718F80C480D490D4A002311
:1015900002E0D458C4500433C4188C42F9D30A4A28
:1015A0000A4C002301E013600432A242FBD3FEF791
:1015B00073FFFFF7AFFFFEE70050002000000020A0
:1015C000080000204816000808000020CC03002076
:1015D000FEE70000F8B500BFF8BC08BC9E467047A7
:0C15E000F8B500BFF8BC08BC9E46704780
:1015EC005652204144433D0020523D00206F686D0F
:1015FC0000000000434453204144433D00000000E0
:10160C00204C3D00206C757800000000202020202C
:10161C00000000000D0A0000454545450000000093
:08162C0053535353000000006A
:081634006CEBFF7F01000000D8
:08163C00F1040008550100084B
:041644003101000868
:0816480024000020FF00000057
:040000050800158159
:00000001FF
