:020000040800F2
:100000000050002079160008C9160008C91600081B
:10001000C9160008C9160008C9160008000000002B
:10002000000000000000000000000000C9160008E9
:10003000C916000800000000C9160008C91600080B
:10004000C9160008C9160008C9160008C916000814
:10005000C9160008C9160008C9160008C916000804
:10006000C9160008C9160008C9160008C9160008F4
:10007000C9160008C9160008C9160008C9160008E4
:10008000C9160008C9160008C9160008C9160008D4
:10009000C9160008C9160008C9160008C9160008C4
:1000A000C9160008C9160008C9160008C9160008B4
:1000B00045140008C9160008C9160008C91600082A
:1000C000C9160008C9160008C9160008C916000894
:1000D000C9160008C916000851060008C91600080C
:1000E000C9160008C916000800000000C91600085B
:1000F000C9160008C9160008C9160008C916000864
:10010000C9160008C9160008C9160008C916000853
:10011000C9160008C9160008C9160008C916000843
:10012000C9160008C9160008C9160008C916000833
:1001300010B5054C237833B9044B13B10448AFF321
:1001400000800123237010BD0C000020000000007F
:10015000CC16000808B5034B1BB103490348AFF3A5
:10016000008008BD0000000010000020CC16000830
:1001700070B50F4B0F4DAB42A3EB050607D0002423
:10018000B61055F8043B01349847A642F9D801F05F
:100190009DFA094D094B5E1BAB424FEAA60606D0FD
:1001A000002455F8043B01349847A642F9D870BDA5
:1001B0005418000854180008541800085C18000867
:1001C000704700BF704700BF024B13B1024800F0F8
:1001D00005B8704700000000E9010008002301464F
:1001E0001A46184600F014B838B5074D074C2C1BBA
:1001F000A41005D0013C55F8043D9847002CF9D1D6
:10020000BDE8384001F068BA601800085C180008C2
:100210002DE9F8431B4D0646286898460F4691463F
:10022000FFF7CEFF184B1C681CB3286865681F2DAC
:1002300022DC4EB96B1C0235636044F82570FFF771
:10024000C1FF0020BDE8F883012304EB8501C1F85C
:100250008890D4F88821AB401A43022EC4F8882134
:10026000C1F80881E6D1D4F88C211A43C4F88C2156
:10027000E0E7064C1C60D8E7FFF7A4FF4FF0FF3023
:10028000E0E700BF000000202C000020300000202C
:1002900080B400AF00BFBD4680BC704780B485B05D
:1002A00000AF7860084B1B68FB6000E030BF064B76
:1002B0001A68FB68D31A7A689A42F7D800BF00BF61
:1002C0001437BD4680BC7047D001002080B489B08F
:1002D00000AF78600B467B807B681B69042B04D8D9
:1002E0007B681B695A1C7B681A617B68DA687B68CB
:1002F000798823F812107B68DB685A1C7B68DA6007
:100300007B68DB68042B02D97B680022DA6000235B
:10031000FB610CE07B68FA6933F81220FB695B0033
:1003200020333B4423F8182CFB690133FB617B68C5
:100330001B69FA699A42EDD30123BB6130E0BB69C6
:100340005B0020333B4433F8183C7B82BB697B6104
:100350000FE07B69013B5B0020333B4433F8182CF2
:100360007B695B0020333B4423F8182C7B69013BFD
:100370007B617B69002B09D07B69013B5B002033EB
:100380003B4433F8183C7A8A9A42E2D37B695B009B
:1003900020333B447A8A23F8182CBB690133BB61B4
:1003A0007B681B69BA699A42C9D37B681B6903F0F1
:1003B0000103002B14D17B681B695B08013B5B00C8
:1003C00020333B4433F8183C1A467B681B695B08B2
:1003D0005B0020333B4433F8183C13445B0807E0D0
:1003E0007B681B695B085B0020333B4433F8183C97
:1003F00018462437BD4680BC7047000080B485B0E5
:1004000000AF786039607A6813469B001344DA00C5
:10041000D11A3A6813469B0113440B44BB60BB6876
:10042000642202FB03F303F5473303F2CE33084A99
:10043000A2FB03235B0CFB60FB68642B01D96423E4
:10044000FB60FB6818461437BD4680BC704700BF90
:1004500029A4F05180B400AF114B1B68104A43F03F
:10046000040313600F4B1B680E4A43F40033136000
:100470000D4B1B6823F470630B4A43F42063136035
:100480000A4B40F241321A60094B42F208021A60EC
:10049000084B40221A6000BFBD4680BC704700BFB9
:1004A000181002401C10024000080140084400409F
:1004B0000C44004004E100E080B483B000AF7860F9
:1004C0007B6801337B607B68FF2B01D900237B6055
:1004D0007B6818460C37BD4680BC704780B485B039
:1004E00000AF72B60E4B1B68BB600E4B1B687B6087
:1004F00062B6BA687B689A4204D3BA687B68D31A3A
:10050000FB6005E0BA687B68D31A03F58073FB6073
:10051000FB68C3F1FF0318461437BD4680BC704723
:10052000E0010020E401002080B584B000AF034664
:10053000FB710023FB6072B6104B1B681846FFF777
:10054000BBFFB8600E4B1B68BA689A420FD00B4BCA
:100550001B680C49FA79CA54084ABB6813600A4BF5
:100560001B68094A43F0800313600123FB6062B6F5
:10057000FB6818461037BD4680BD00BFE001002073
:10058000E4010020E80100200C44004080B582B066
:1005900000AF78600CE07B681B781846FFF7C4FF5B
:1005A0000346002B01D1002307E07B6801337B6009
:1005B0007B681B78002BEED1012318460837BD4617
:1005C00080BD000080B586B000AF786000237B61FD
:1005D0007B68002B1ED13020FFF7A6FF034631E0D9
:1005E00079681A4BA3FB0123DA0813469B001344D6
:1005F0005B00CA1AD2B27B69591C79613032D2B21F
:1006000018333B4403F8102C7B68104AA2FB0323E9
:10061000DB087B607B68002BE2D10FE07B69013B4C
:100620007B6107F108027B6913441B781846FFF7CA
:100630007BFF0346002B01D1002303E07B69002BE5
:10064000ECD1012318461837BD4680BDCDCCCCCCAB
:1006500080B500AF114B1B6803F08003002B1AD04C
:100660000F4B1A680F4B1B689A420ED00C4B1B683D
:100670000D4AD25C0D4B1A60094B1B681846FFF7F8
:100680001BFF0346064A136005E0094B1B68084A36
:1006900023F08003136000BF80BD00BF0044004012
:1006A000E4010020E0010020E801002004440040B3
:1006B0000C44004080B483B000AF00237B6003E0B3
:1006C00000BF7B6801337B607B68632BF8D900BF78
:1006D00000BF0C37BD4680BC7047000080B500AF3E
:1006E000034B20221A60FFF7E5FF00BF80BD00BF6B
:1006F0001008014080B500AF034B20221A60FFF7BD
:10070000D9FF00BF80BD00BF1408014080B500AF15
:10071000034B4FF400721A60FFF7CCFF00BF80BD9F
:10072000100C014080B500AF034B4FF400721A600B
:10073000FFF7C0FF00BF80BD140C014080B500AFC3
:10074000FFF7E4FFFFF7CAFFFFF7ECFFFFF7D2FF69
:1007500000BF80BD80B500AFFFF7E4FFFFF7BEFF2D
:10076000FFF7D4FF00BF80BD80B582B000AFFFF7B8
:10077000CDFF00237B6006E0FFF7BCFFFFF7AEFF75
:100780007B6801337B607B68082BF5D9FFF7E2FFBC
:1007900000BF0837BD4680BD80B584B000AF0346BA
:1007A000FB718023FB6010E0FA79FB681340002B9B
:1007B00002D0FFF7ABFF01E0FFF7B4FFFFF78EFFBA
:1007C000FFF798FFFB685B08FB60FB68002BEBD131
:1007D000FFF79CFFFFF782FF084B1B6803F40073D1
:1007E000002B0CBF01230023DBB2BB60FFF782FFAD
:1007F000BB6818461037BD4680BD00BF080C0140DD
:1008000080B584B000AF0346FB71FFF797FFFB791B
:100810005B00DBB21846FFF7BFFFF860FFF79AFFF7
:10082000FB6818461037BD4680BD000080B400AF9D
:10083000134B1B68124A43F00D031360114B202227
:100840001A60114B4FF400721A60104B1B6823F4AE
:1008500070030E4A43F4C00313600D4B1B6823F072
:10086000F0030B4A43F060031360064B20221A602A
:10087000054B4FF400721A6000BFBD4680BC704744
:100880001810024010080140100C014000080140FF
:10089000040C014080B582B000AF78603960FFF78A
:1008A0004DFF0E4B1B785B00DBB21846FFF774FF61
:1008B0000020FFF771FF06E07B685A1C7A601B7806
:1008C0001846FFF769FF3B685A1E3A60002BF3D1C8
:1008D000FFF740FF00BF0837BD4680BD0400002081
:1008E00080B582B000AF0346FB71FB1D01211846A5
:1008F000FFF7D0FF00BF0837BD4680BD80B582B08E
:1009000000AF78603960FFF719FF0E4B1B785B0072
:10091000DBB21846FFF740FF4020FFF73DFF06E03F
:100920007B685A1C7A601B781846FFF735FF3B68D6
:100930005A1E3A60002BF3D1FFF70CFF00BF0837B7
:10094000BD4680BD0400002080B483B000AF00230A
:100950007B6007E0084A7B68134400221A707B68BA
:1009600001337B607B68B3F5007FF3D300BF00BF2A
:100970000C37BD4680BC7047E802002080B584B0CB
:1009800000AF786039607B68032B30D83B68002B60
:100990002DD07A683B681344042B03D97B68C3F1DC
:1009A00004033B6021233B7200237B727F23BB72D5
:1009B0002223FB727B68DBB23B737B68DAB23B6855
:1009C000DBB21344DBB2013BDBB27B7307F10803FC
:1009D00006211846FFF75EFF7B68DB01064A1A44D2
:1009E0003B68DB0119461046FFF788FF00E000BFB7
:1009F0001037BD4680BD00BFE802002080B500AFC3
:100A000004210020FFF7BAFF00BF80BD80B485B08D
:100A100000AF8023BB604FF480737B600023FB60DA
:100A200008E0BA68FB681344074A0021D154FB6808
:100A30000133FB60FA687B689A42F2D300BF00BFC3
:100A40001437BD4680BC7047E802002080B483B0F4
:100A500000AF0346FB71FB79413B162B44D801A242
:100A600052F823F0C10A0008E90A0008E90A000860
:100A7000C50A0008C90A0008CD0A0008D10A000802
:100A8000E90A0008D50A0008E90A0008E90A00088E
:100A9000E90A0008E90A0008D90A0008E90A00087A
:100AA000E90A0008E90A0008DD0A0008E10A00086E
:100AB000E90A0008E90A0008E90A0008E50A00084E
:100AC0000C4B12E00C4B10E00C4B0EE00C4B0CE00E
:100AD0000C4B0AE00C4B08E00C4B06E00C4B04E01E
:100AE0000C4B02E00C4B00E00C4B18460C37BD469B
:100AF00080BC7047E8170008F0170008F8170008D6
:100B00000018000808180008101800081818000835
:100B1000201800082818000830180008E0170008FE
:100B200080B483B000AF786039607B687F2B1AD8BF
:100B30003B681F2B17D83B68DB08DA017B6813443E
:100B40000B4AD15C3B6803F00703012202FA03F36E
:100B5000DAB23B68DB08D8017B6803440A43D1B2B0
:100B6000034AD15400E000BF0C37BD4680BC70473B
:100B7000E802002080B485B000AF786039600023BF
:100B8000FB600BE03A6813465B0013445B001A46B7
:100B9000FB681344FB607B6801337B607B681B78D8
:100BA000002BEFD1FA683B689A4203D3FA683B689E
:100BB000D31AFB60FB6818461437BD4680BC7047EB
:100BC00080B58AB000AFF860B9603B601346FB7136
:100BD000FB791846FFF73AFF786100237B6240E01B
:100BE00000233B6237E07A697B6A13441B781A461C
:100BF0003B6A22FA03F303F00103002B27D0002302
:100C0000FB611FE00023BB6115E07B6A3A6803FBD0
:100C100002F2FB681A44FB69D0183B6A3A6803FB8E
:100C200002F2BB681A44BB6913441946FFF778FF08
:100C3000BB690133BB61BA693B689A42E5D3FB6982
:100C40000133FB61FA693B689A42DBD300E000BFE5
:100C50003B6A01333B623B6A062BC4D97B6A013392
:100C60007B627B6A042BBBD900BF00BF2837BD461F
:100C700080BD80B586B000AFF860B9607A607968F1
:100C8000F868FFF777FF386100237B613B697F2BB2
:100C900018D83B69C3F180035B087B6112E0FB68F5
:100CA0001A787B68B9687869FFF78AFF7A68134613
:100CB0005B0013445B001A467B6913447B61FB684D
:100CC0000133FB60FB681B78002BE8D100BF00BF3D
:100CD0001837BD4680BD80B582B000AF7860FFF7A1
:100CE00095FE022209217868FFF7C3FF0221012047
:100CF000FFF744FE00BF0837BD4680BD80B582B017
:100D000000AF7860FFF720FE022209217868FFF724
:100D1000B0FFFFF773FE00BF0837BD4680BD00007F
:100D200080B582B000AF78607B68002B03D00548A7
:100D3000FFF72CFC02E00448FFF728FC00BF08374F
:100D4000BD4680BDEC160008E416000880B584B0EE
:100D500000AFFFF76BFD6420FFF7A0FAFFF704FD7B
:100D60003C20FFF74DFDB8603D20FFF749FD78605E
:100D70002D48FFF70BFCB868FFF7D2FF2B48FFF7B1
:100D800005FC7868FFF7CCFF2948FFF7FFFB294BEC
:100D90001B6803F40073002B14BF01230023DBB294
:100DA0001846FFF70FFC2448FFF7F0FBBB68002B49
:100DB00006D0224B3C221A70214B224A1A6012E0C4
:100DC0007B68002B06D01D4B3D221A701C4B1E4A1F
:100DD0001A6008E0194B3C221A70194B1B4A1A6022
:100DE0001B48FFF7D3FB0023FB6009E0194AFB68AF
:100DF00013441B781846FFF773FDFB680133FB6053
:100E0000FB68192BF2D9A520FFF76AFD4FF4487053
:100E1000FFF744FAA420FFF763FD0F48FFF76EFFCA
:100E200000BF1037BD4680BDF0160008141700083B
:100E30001C170008080C01402417000804000020BB
:100E4000080000202817000830170008E4160008E2
:100E500038170008381800087C17000880B400AF65
:100E6000274B1B68264A43F019031360254B1B6868
:100E7000244A43F002031360234B40221A60234BA1
:100E80001B6823F07063214A43F0007313601E4B0C
:100E900040221A601E4B1B681D4A43F440631360D6
:100EA0001C4B1B6823F070431A4A43F02043136025
:100EB000194B00221A60194B40F21F321A60184B6E
:100EC00009221A60174B0A221A60174B00221A6077
:100ED000164B1B6823F4F043144A43F4D0431360C9
:100EE000134B1B68124A43F010031360114B01228D
:100EF0001A60094B01221A6000BFBD4680BC7047D2
:100F0000181002401C100240100C0140000C01405F
:100F1000040001400010014000040040280400408B
:100F20002C04004038040040240400401804004011
:100F3000200400401404004080B483B000AF786007
:100F40007B68002B03D0064B40221A6002E0054B61
:100F500040221A6000BF0C37BD4680BC704700BFFE
:100F6000140C0140100C014080B483B000AF7860D5
:100F70007B680A2B01D90A237B60054A7B68C3F191
:100F80000A03136000BF0C37BD4680BC704700BF2A
:100F90003804004080B582B000AF78607B681B7871
:100FA000532B09D1194B00221A600020FFF7C4FF10
:100FB0000520FFF7D9FF24E07B681B78572B17D15A
:100FC000124B1B68002B09D10120FFF7B5FF002051
:100FD000FFF7CAFF0D4B01221A6012E00020FFF755
:100FE000ABFF0A20FFF7C0FF084B00221A6008E0A1
:100FF000064B00221A600120FFF79EFF0A20FFF730
:10100000B3FF00BF0837BD4680BD00BFE804002025
:1010100080B400AF0B4B1B680A4A43F00403136013
:10102000094B80221A60094B1B6823F07043074A62
:1010300043F000531360044B80221A6000BFBD468A
:1010400080BC70471810024014080140000801409D
:1010500080B483B000AF78607B68002B03D0084B6E
:1010600001221A6008E0064B00221A60054B00229C
:101070001A60054B80221A600C37BD4680BC704751
:10108000D8010020DC0100201408014080B582B0A6
:1010900000AF78607B681B78442B0CBF01230023D2
:1010A000DBB21846FFF7D4FF00BF0837BD4680BD4E
:1010B00080B400AF114B1B68002B11D0104B1B6884
:1010C000002B06D10F4B80221A600D4B01221A60B3
:1010D00010E00D4B80221A60094B00221A6009E0D3
:1010E000074B1B68002B05D0074B80221A60044B6E
:1010F00000221A6000BFBD4680BC7047D8010020A6
:10110000DC010020100801401408014080B483B0C5
:1011100000AF00237B6072B6084B1B68002B06D023
:10112000064B1B68013B054A136001237B6062B6D6
:101130007B6818460C37BD4680BC7047C001002054
:1011400080B483B000AF00237B6072B6084B1B688D
:10115000002B06D0064B1B68013B054A1360012398
:101160007B6062B67B6818460C37BD4680BC704712
:10117000C801002080B400AF1C4B1B681B4A43F021
:10118000010313601A4B00221A601A4B00221A60E6
:10119000194B00221A60194B00221A60184B0022CA
:1011A0001A60184B00221A604FF0804300221A6028
:1011B000154B07221A60154B7C221A60144B002233
:1011C0001A60144B01221A60134B00221A60134B51
:1011D00001221A60124B4FF080521A604FF0804388
:1011E00001221A6000BFBD4680BC70471C1002403F
:1011F000C0010020C4010020C8010020CC01002053
:10120000D0010020D4010020280000402C00004024
:101210002400004014000040100000400C0000407A
:1012200000E100E080B400AF72B6084B00221A6003
:10123000074B00221A60074B00221A60064B00225F
:101240001A6062B600BFBD4680BC7047C001002076
:10125000C4010020C8010020CC01002080B485B06A
:1012600000AF78607A6813465B001344FB60072286
:10127000FB689A40044B1B68034913430B6000BF93
:101280001437BD4680BC70471024014080B500AFC4
:10129000224B1B68214A43F401731360204B1B68E7
:1012A0001F4A23F4404313601E4B1B681D4A23F062
:1012B000FF0313601C4B00221A600120FFF7CEFFD2
:1012C0000020FFF7CBFF194B00221A60184B0122B8
:1012D0001A60184B01221A600120FEF7DFFF154B40
:1012E0001B68144A43F00803136000BF114B1B68CE
:1012F00003F00803002BF9D10E4B1B680D4A43F095
:101300000403136000BF0B4B1B6803F00403002BA6
:10131000F9D1084B084A1A6000BF80BD181002407E
:101320000410024000080140042401402C24014024
:10133000342401400824014001001E0080B483B021
:1013400000AF78600D4A7B6813600D4B1B680C4A38
:1013500043F48003136000BF0A4B1B6803F00203D1
:10136000002BF9D0084B1B689BB2C3F30B039BB255
:1013700018460C37BD4680BC704700BF342401407E
:1013800008240140002401404C24014080B483B073
:1013900000AF78607B681E2B01D8064B05E07B68A8
:1013A000452B01D8044B00E0044B18460C37BD46D2
:1013B00080BC70477C170008841700088C17000851
:1013C00080B584B000AFF860B9607A603B60FFF729
:1013D00085F803463F2B23D91348FFF7D7F8F86861
:1013E000FFF7F0F81148FFF7D1F8B868FFF7EAF80F
:1013F0000F48FFF7CBF87868FFF7E4F80D48FFF7E0
:10140000C5F83868FFF7C2F80B48FFF7BFF80B4B79
:101410001B681846FFF7BAF80948FFF7B7F800E06D
:1014200000BF1037BD4680BD94170008981700080C
:101430009C170008A0170008AC170008080000203F
:101440002417000880B500AF284B1B6803F0010388
:10145000002B49D0254B1B68244A23F0010313605D
:10146000FFF726FE224B1B680133214A1360204BF5
:101470001B68072B0CD91E4B00221A601D4B1B68E2
:10148000B3F1FF3F04D01B4B1B680133194A1360B3
:10149000194B1B680133184A1360174B1B68072B45
:1014A0000CD9154B00221A60144B1B68B3F1FF3F97
:1014B00004D0124B1B680133104A1360104B1B6899
:1014C00001330F4A13600E4B1B68072B0CD90C4BD2
:1014D00000221A600B4B1B68B3F1FF3F04D0094B8D
:1014E0001B680133074A136000BF80BD1000004035
:1014F000D4010020D0010020C4010020C001002040
:10150000CC010020C801002080B596B000AF07F1E3
:10151000140300221A605A609A60DA601A613B462E
:1015200000221A605A609A60DA601A6100237B65B3
:1015300000233B650023FB644D4BBB64532387F8BA
:101540004730FEF787FFFFF715FEFFF79FFEFFF717
:10155000FDFBFFF783FCFFF75BFD4548FFF71AFD36
:10156000FFF760FE4348FFF711F8FFF7E9FD034678
:10157000002B07D0FB6C002B04D0B86CFFF7ABFB43
:101580000023FB64FFF7C2FD0346002B6DD0012052
:10159000FFF7D4FE0346A7F844300020FFF7CEFE45
:1015A0000346A7F84230B7F8442007F11403114668
:1015B0001846FEF78BFEF863B7F842203B4611460B
:1015C0001846FEF783FEB863B96BF86BFEF716FF9B
:1015D00078637B6B3B63386BFFF7D8FEF862FB6A7E
:1015E0001B7897F847209A4214BF01230023DBB2EF
:1015F000BB62F86AFFF74AFD7B6D312B02D87B6D29
:1016000001337B653B6D002B02D13B6D01333B65A4
:10161000BB6A002B15D0F86AFFF7BCFCFB6ABB6401
:101620000123FB64FB6A1B7887F8473000237B6546
:10163000FB6A3A6BB96BF86BFFF7C2FE00233B65A0
:1016400093E77B6D312B04D9F86AFFF7A3FC0023E5
:101650007B653B6D002B88D0FB6A3A6BB96BF86BEE
:10166000FFF7AEFE00233B657FE700BF7DE700BFCD
:101670007C170008B41700080D488546FEF708FEE1
:101680000C480D490D4A002302E0D458C4500433DD
:10169000C4188C42F9D30A4A0A4C002301E01360B3
:1016A0000432A242FBD3FEF763FDFFF72DFFFEE7F6
:1016B00000500020000000200C00002060180008EE
:1016C0000C000020EC040020FEE70000F8B500BF8D
:1016D000F8BC08BC9E467047F8B500BFF8BC08BC13
:0416E0009E4670476B
:1016E4004E4F41434B00000041434B004F4C454497
:1016F400207363616E205041353D53434B2F534358
:101704004C205042393D53444120307833433D000E
:1017140020307833443D0000205344413D00000014
:101724000D0A000030783343000000003078334461
:10173400000000004F4C4544206E6F7420646574B3
:1017440065637465643A20636865636B205643433C
:101754002F474E4420616E642053434B2D3E443149
:10176400332F5041352C205344412D3E4431342FE6
:101774005042390D0A000000534146450000000064
:101784005741524E494E470044414E47455200008E
:101794004C3D000020523D0020433D002053544165
:1017A4005455533D00000000204F4C45443D00007B
:1017B40053544D333246313033207269736B206D8C
:1017C4006F6E69746F722077697468204F4C45445A
:1017D4002072656164790D0A0000000000000000B9
:1017E400000000007E1111117E0000007F414122A3
:1017F4001C0000007F494949410000007F09090994
:10180400010000003E4149497A00000000417F4147
:10181400000000007F020C107F0000007F091929DE
:101824004600000046494949310000007F20182045
:101834007F000000AED580A81FD300408D14200087
:10184400A1C8DA02818FD9F1DB40A4A62EAF000033
:08185400C9010008550100085C
:04185C00310100084E
:0C186000280000203C000000E4160008F6
:040000050800167960
:00000001FF
