:020000040800F2
:1000000000500020E5050008350600083506000808
:100010003506000835060008350600080000000017
:10002000000000000000000000000000350600088D
:1000300035060008000000003506000835060008F7
:1000400035060008350600083506000835060008A4
:100050003506000835060008350600083506000894
:100060003506000835060008350600083506000884
:100070003506000835060008350600083506000874
:100080003506000835060008350600083506000864
:100090003506000835060008350600083506000854
:1000A0003506000835060008350600083506000844
:1000B000C9040008350600083506000835060008A2
:1000C0003506000835060008350600083506000824
:1000D00035060008350600086505000835060008E5
:1000E0003506000835060008000000003506000847
:1000F00035060008350600083506000835060008F4
:1001000035060008350600083506000835060008E3
:1001100035060008350600083506000835060008D3
:1001200035060008350600083506000835060008C3
:1001300010B5054C237833B9044B13B10448AFF321
:1001400000800123237010BD040000200000000087
:100150003806000808B5034B1BB103490348AFF349
:10016000008008BD000000000800002038060008DC
:1001700070B50F4B0F4DAB42A3EB050607D0002423
:10018000B61055F8043B01349847A642F9D800F060
:1001900053FA094D094B5E1BAB424FEAA60606D047
:1001A000002455F8043B01349847A642F9D870BDA5
:1001B000600600086006000860060008680600087F
:1001C000704700BF704700BF024B13B1024800F0F8
:1001D00005B8704700000000E9010008002301464F
:1001E0001A46184600F014B838B5074D074C2C1BBA
:1001F000A41005D0013C55F8043D9847002CF9D1D6
:10020000BDE8384000F01EBA6C0600086806000819
:100210002DE9F8431B4D0646286898460F4691463F
:10022000FFF7CEFF184B1C681CB3286865681F2DAC
:1002300022DC4EB96B1C0235636044F82570FFF771
:10024000C1FF0020BDE8F883012304EB8501C1F85C
:100250008890D4F88821AB401A43022EC4F8882134
:10026000C1F80881E6D1D4F88C211A43C4F88C2156
:10027000E0E7064C1C60D8E7FFF7A4FF4FF0FF3023
:10028000E0E700BF0000002024000020280000203C
:1002900080B400AF094B1B68084A43F001031360A8
:1002A00000BF064B1B6803F00203002BF9D0044B80
:1002B00000221A6000BFBD4680BC7047001002409B
:1002C0000410024080B400AF084B1B68074A43F09B
:1002D00010031360064B1B6823F00F03044A43F01E
:1002E0000203136000BFBD4680BC70471810024077
:1002F0000410014080B485B000AF78607B68FB607B
:10030000FB68002B04D00B4B4FF480721A6003E0A3
:10031000084B4FF080721A607B68002B14BF0123DA
:100320000023DBB21A46044B1A6000BF1437BD46E7
:1003300080BC704710100140B801002080B483B029
:1003400000AF78607B681F2B06D8094A01217B68C3
:1003500001FA03F3136006E07B68203B054A0121A4
:1003600001FA03F3136000BF0C37BD4680BC704731
:1003700000E100E004E100E080B500AF104B1B6835
:100380000F4A43F0050313600E4B1B680D4A43F4FC
:10039000003313600C4B1B6823F47F430A4A43F479
:1003A00096431360094B40F241321A60084B42F207
:1003B00008021A602620FFF7C1FF00BF80BD00BF02
:1003C000181002401C100240000801400844004080
:1003D0000C44004080B483B000AF7860064A7B686C
:1003E0001360064B1B68054A43F08003136000BF8F
:1003F0000C37BD4680BC7047CC0100200C44004047
:1004000080B483B000AF78607B68002B14BF0123F9
:100410000023DBB21A46054B1A60054B01221A6015
:1004200000BF0C37BD4680BC704700BFC80100202C
:10043000C401002080B582B000AF78607868FFF713
:1004400059FF064B00221A60054B03221A60786898
:10045000FFF7D6FF00BF0837BD4680BDBC010020B6
:10046000C001002080B500AF114B1B68104A43F05B
:10047000010313604FF0804300221A600D4B41F6D8
:100480003F721A600C4B40F2E7321A600B4B0122AC
:100490001A600B4B00221A600A4B01221A601C20C2
:1004A000FFF74CFF4FF0804301221A6000BF80BD70
:1004B0001C100240280000402C00004014000040A6
:1004C000100000400C00004080B500AF1D4B1B68C1
:1004D00003F00103002B32D01A4B1B68194A23F09A
:1004E00001031360184B1B680133174A1360174B45
:1004F0001B68002B13D0154B1B68013B134A13607C
:10050000124B1B68002B0AD1114B1B68002B03D028
:100510001048FFF75FFF02E00F48FFF75BFF0A4B51
:100520001A680E4B1B689A4209D30D4B1B68002BAF
:100530000CBF01230023DBB21846FFF77BFF00BF8F
:1005400080BD00BF10000040BC010020C40100209D
:10055000C80100205006000858060008C00100200D
:10056000B801002080B483B000AF134B1B6803F0C8
:100570008003002B1BD0114B1B6803F08003002B62
:1005800015D00F4B1B681B78FB71FB79002B08D033
:100590000C4AFB7913600A4B1B680133084A13604D
:1005A00005E0054B1B68044A23F08003136000BF7D
:1005B0000C37BD4680BC70470C44004000440040EE
:1005C000CC0100200444004080B500AFFFF77AFE64
:1005D000FFF7D2FE0120FFF72DFFFFF743FF30BFEB
:1005E000FDE700000D488546FFF752FE0C480D4917
:1005F0000D4A002302E0D458C4500433C4188C427E
:10060000F9D30A4A0A4C002301E013600432A242E3
:10061000FBD3FFF7ADFDFFF7D7FFFEE7005000204B
:1006200000000020040000206C06000804000020E8
:10063000D0010020FEE70000F8B500BFF8BC08BC00
:100640009E467047F8B500BFF8BC08BC9E46704790
:1006500068690D0A000000006279650D0A0000005B
:08066000C90100085501000862
:040668003101000854
:04066C00200000204A
:04000005080005E505
:00000001FF
