:020000040800F2
:100000000050002015060008650600086506000877
:100010006506000865060008650600080000000087
:10002000000000000000000000000000650600085D
:100030006506000800000000650600088905000844
:1000400065060008650600086506000865060008E4
:1000500065060008650600086506000865060008D4
:1000600065060008650600086506000865060008C4
:1000700065060008650600086506000865060008B4
:1000800065060008650600086506000865060008A4
:100090006506000865060008650600086506000894
:1000A0006506000865060008650600086506000884
:1000B0006506000865060008650600086506000874
:1000C0006506000865060008650600086506000864
:1000D0006506000865060008650600086506000854
:1000E000A505000865060008000000006506000878
:1000F0006506000865060008650600086506000834
:100100006506000865060008650600086506000823
:100110006506000865060008650600086506000813
:100120006506000865060008650600086506000803
:1001300010B5054C237833B9044B13B10448AFF321
:1001400000800123237010BD040000200000000087
:100150006806000808B5034B1BB103490348AFF319
:10016000008008BD000000000800002068060008AC
:1001700070B50F4B0F4DAB42A3EB050607D0002423
:10018000B61055F8043B01349847A642F9D800F060
:100190006BFA094D094B5E1BAB424FEAA60606D02F
:1001A000002455F8043B01349847A642F9D870BDA5
:1001B00088060008880600088806000890060008DF
:1001C000704700BF704700BF024B13B1024800F0F8
:1001D00005B8704700000000E9010008002301464F
:1001E0001A46184600F014B838B5074D074C2C1BBA
:1001F000A41005D0013C55F8043D9847002CF9D1D6
:10020000BDE8384000F036BA9406000890060008B1
:100210002DE9F8431B4D0646286898460F4691463F
:10022000FFF7CEFF184B1C681CB3286865681F2DAC
:1002300022DC4EB96B1C0235636044F82570FFF771
:10024000C1FF0020BDE8F883012304EB8501C1F85C
:100250008890D4F88821AB401A43022EC4F8882134
:10026000C1F80881E6D1D4F88C211A43C4F88C2156
:10027000E0E7064C1C60D8E7FFF7A4FF4FF0FF3023
:10028000E0E700BF0000002024000020280000203C
:1002900080B400AF094B1B68084A43F001031360A8
:1002A00000BF064B1B6803F00203002BF9D0044B80
:1002B00000221A6000BFBD4680BC7047001002409B
:1002C0000410024080B400AF064B41F63F721A6042
:1002D000054B00221A60054B07221A6000BFBD467D
:1002E00080BC704714E000E018E000E010E000E09F
:1002F00080B400AF044B20221A60044B01221A7014
:1003000000BFBD4680BC704710080140C4010020FA
:1003100080B400AF044B20221A60044B00221A70F4
:1003200000BFBD4680BC704714080140C4010020D6
:1003300080B400AF064B1B6803F40053002B01D1BF
:10034000012300E000231846BD4680BC704700BF73
:100350000810014080B400AF044B1B680133034A0E
:10036000136000BFBD4680BC704700BFBC010020C9
:1003700080B582B000AF0346FB71FFF7D9FF03469B
:10038000002B0BD00A4B1B78002B0DD0FFF7C0FFC2
:10039000FB79002B08D0FFF7DDFF05E0044B1B784D
:1003A000002B01D1FFF7A4FF00BF0837BD4680BD79
:1003B000C401002080B400AF134B1B68124A43F005
:1003C00005031360114B1B68104A43F4003313609C
:1003D0000F4B1B680E4A23F4706313600C4B1B68B1
:1003E0000B4A43F4206313600A4B00221A600A4B45
:1003F00040F241321A60074B42F208021A6000BF15
:10040000BD4680BC704700BF181002401C1002405F
:10041000000801400C4400400844004080B483B010
:1004200000AF0346FB7100BF064B1B6803F080035F
:10043000002BF9D0044AFB79136000BF0C37BD468E
:1004400080BC7047004400400444004080B582B046
:1004500000AF786007E07B681B781846FFF7DEFF87
:100460007B6801337B607B681B78002BF3D100BF76
:1004700000BF0837BD4680BD80B500AF294B1B6863
:10048000284A43F015031360274B1B68264A23F4C0
:1004900070031360244B1B68234A43F4001313605A
:1004A000224B1B68214A23F4700313601F4B1B6807
:1004B0001E4A43F4000313601D4B4FF400521A60B0
:1004C000FFF716FF1B4B1B68323B1B4A13600120D2
:1004D000FFF74EFF194B1B68184A23F0F003136017
:1004E000164B1B68154A43F020031360144B4FF45E
:1004F00000521A60134B1B68124A43F400531360F6
:10050000114B1B68104A43F4005313600F4B1B68D8
:100510000E4A43F4005313600D4B4FF480721A607F
:1005200000BF80BD181002400008014004100140C7
:1005300010100140B8010020C0010020140001404B
:100540001404014000040140080401400C0401406F
:1005500004E100E080B483B000AF0023FB7172B609
:10056000084B1B68002B06D0064B1B68013B054A55
:1005700013600123FB7162B6FB7918460C37BD4648
:1005800080BC7047BC01002080B400AF044B1B68E6
:100590000133034A136000BFBD4680BC704700BFF3
:1005A000B801002080B500AF0C4B1B6803F400536A
:1005B000002B11D0094B4FF400521A60084B1A68F7
:1005C000084B1B68D31A312B06D9054B1B68054A0B
:1005D00013600120FFF7CCFE00BF80BD1404014072
:1005E000B8010020C001002080B500AFFFF76AFE0F
:1005F000FFF7E0FEFFF740FFFFF7ACFF0346002BDD
:1006000003D00348FFF722FFF6E730BFF4E700BF4F
:10061000800600080D488546FFF73AFE0C480D4954
:100620000D4A002302E0D458C4500433C4188C424D
:10063000F9D30A4A0A4C002301E013600432A242B3
:10064000FBD3FFF795FDFFF7CFFFFEE7005000203B
:100650000000002004000020940600080400002090
:10066000C8010020FEE70000F8B500BFF8BC08BCD8
:100670009E467047F8B500BFF8BC08BC9E46704760
:0806800048490D0A00000000CA
:08068800C9010008550100083A
:04069000310100082C
:040694002000002022
:0400000508000615D4
:00000001FF
